{
  "contractName": "Lottery",
  "abi": [
    {
      "inputs": [],
      "payable": false,
      "stateMutability": "nonpayable",
      "type": "constructor"
    },
    {
      "constant": true,
      "inputs": [
        {
          "internalType": "uint256",
          "name": "",
          "type": "uint256"
        }
      ],
      "name": "lol",
      "outputs": [
        {
          "internalType": "uint256",
          "name": "",
          "type": "uint256"
        }
      ],
      "payable": false,
      "stateMutability": "view",
      "type": "function"
    },
    {
      "constant": true,
      "inputs": [],
      "name": "manager",
      "outputs": [
        {
          "internalType": "address",
          "name": "",
          "type": "address"
        }
      ],
      "payable": false,
      "stateMutability": "view",
      "type": "function"
    },
    {
      "constant": true,
      "inputs": [
        {
          "internalType": "uint256",
          "name": "",
          "type": "uint256"
        }
      ],
      "name": "players",
      "outputs": [
        {
          "internalType": "address payable",
          "name": "",
          "type": "address"
        }
      ],
      "payable": false,
      "stateMutability": "view",
      "type": "function"
    },
    {
      "constant": false,
      "inputs": [],
      "name": "deposit",
      "outputs": [],
      "payable": true,
      "stateMutability": "payable",
      "type": "function"
    },
    {
      "constant": true,
      "inputs": [],
      "name": "getBalance",
      "outputs": [
        {
          "internalType": "uint256",
          "name": "",
          "type": "uint256"
        }
      ],
      "payable": false,
      "stateMutability": "view",
      "type": "function"
    },
    {
      "constant": true,
      "inputs": [],
      "name": "random",
      "outputs": [
        {
          "internalType": "uint256",
          "name": "",
          "type": "uint256"
        }
      ],
      "payable": false,
      "stateMutability": "view",
      "type": "function"
    },
    {
      "constant": false,
      "inputs": [],
      "name": "pickWinner",
      "outputs": [],
      "payable": false,
      "stateMutability": "nonpayable",
      "type": "function"
    }
  ],
  "bytecode": "0x608060405234801561001057600080fd5b5033600160006101000a81548173ffffffffffffffffffffffffffffffffffffffff021916908373ffffffffffffffffffffffffffffffffffffffff16021790555061071c806100616000396000f3fe6080604052600436106100705760003560e01c80635ec01e4d1161004e5780635ec01e4d1461010e5780638be0e2f114610139578063d0e30db014610188578063f71d96cb1461019257610070565b806312065fe014610075578063481c6a75146100a05780635d495aea146100f7575b600080fd5b34801561008157600080fd5b5061008a61020d565b6040518082815260200191505060405180910390f35b3480156100ac57600080fd5b506100b56102ef565b604051808273ffffffffffffffffffffffffffffffffffffffff1673ffffffffffffffffffffffffffffffffffffffff16815260200191505060405180910390f35b34801561010357600080fd5b5061010c610315565b005b34801561011a57600080fd5b50610123610548565b6040518082815260200191505060405180910390f35b34801561014557600080fd5b506101726004803603602081101561015c57600080fd5b810190808035906020019092919050505061058e565b6040518082815260200191505060405180910390f35b6101906105af565b005b34801561019e57600080fd5b506101cb600480360360208110156101b557600080fd5b81019080803590602001909291905050506105de565b604051808273ffffffffffffffffffffffffffffffffffffffff1673ffffffffffffffffffffffffffffffffffffffff16815260200191505060405180910390f35b6000600160009054906101000a900473ffffffffffffffffffffffffffffffffffffffff1673ffffffffffffffffffffffffffffffffffffffff163373ffffffffffffffffffffffffffffffffffffffff16146102d2576040517f08c379a000000000000000000000000000000000000000000000000000000000815260040180806020018281038252600d8152602001807f4e6f207065726d697373696f6e0000000000000000000000000000000000000081525060200191505060405180910390fd5b3073ffffffffffffffffffffffffffffffffffffffff1631905090565b600160009054906101000a900473ffffffffffffffffffffffffffffffffffffffff1681565b600160009054906101000a900473ffffffffffffffffffffffffffffffffffffffff1673ffffffffffffffffffffffffffffffffffffffff163373ffffffffffffffffffffffffffffffffffffffff16146103d8576040517f08c379a00000000000000000000000000000000000000000000000000000000081526004018080602001828103825260048152602001807f47544f210000000000000000000000000000000000000000000000000000000081525060200191505060405180910390fd5b60036000805490501015610454576040517f08c379a000000000000000000000000000000000000000000000000000000000815260040180806020018281038252601e8152602001807f4e6f7420656e6f75676820706c6179657220706172746963697061696e67000081525060200191505060405180910390fd5b600061045e610548565b9050600080600080549050838161047157fe5b0690506000818154811061048157fe5b9060005260206000200160009054906101000a900473ffffffffffffffffffffffffffffffffffffffff1691508173ffffffffffffffffffffffffffffffffffffffff166108fc6104d061020d565b9081150290604051600060405180830381858888f193505050501580156104fb573d6000803e3d6000fd5b50600060405190808252806020026020018201604052801561052c5781602001602082028038833980820191505090505b506000908051906020019061054292919061061a565b50505050565b600044426000805490506040516020018084815260200183815260200182815260200193505050506040516020818303038152906040528051906020012060001c905090565b6002818154811061059b57fe5b906000526020600020016000915090505481565b600260019080600181540180825580915050906001820390600052602060002001600090919290919091505550565b600081815481106105eb57fe5b906000526020600020016000915054906101000a900473ffffffffffffffffffffffffffffffffffffffff1681565b828054828255906000526020600020908101928215610693579160200282015b828111156106925782518260006101000a81548173ffffffffffffffffffffffffffffffffffffffff021916908373ffffffffffffffffffffffffffffffffffffffff1602179055509160200191906001019061063a565b5b5090506106a091906106a4565b5090565b6106e491905b808211156106e057600081816101000a81549073ffffffffffffffffffffffffffffffffffffffff0219169055506001016106aa565b5090565b9056fea265627a7a72315820f08092d0830e9a81988e37384e2f7bf1bcfbda63fca32188656580d9492ee52164736f6c63430005100032",
  "source": "pragma solidity >=0.5.0;\n\n// the lottery will have manager that\n\ncontract Lottery {\n    address payable[] public players; //accessed by anyone\n    address public manager;\n    uint256[] public lol;\n\n    constructor() public {\n        manager = msg.sender;\n    }\n\n    // receive() external payable {\n    //     require(msg.value > 0.1 ether, \"value not right\");\n    // players.push(payable(msg.sender)); //needs to convert before pushing to payable array\n    // }\n\n    function deposit() public payable {\n        lol.push(1);\n    }\n\n    function getBalance() public view returns (uint256) {\n        require(msg.sender == manager, \"No permission\");\n        return address(this).balance;\n    }\n\n    function random() public view returns (uint256) {\n        return\n            uint256(\n                keccak256(\n                    abi.encodePacked(\n                        block.difficulty,\n                        block.timestamp,\n                        players.length\n                    )\n                )\n            );\n    }\n\n    function pickWinner() public {\n        require(msg.sender == manager, \"GTO!\");\n        require(players.length >= 3, \"Not enough player participaing\");\n\n        uint256 rand = random();\n        address payable winner;\n        uint256 index = rand % players.length;\n\n        winner = players[index];\n        winner.transfer(getBalance());\n        players = new address payable[](0); //reset lottery\n    }\n}\n",
  "sourcePath": "/home/arthur/Desktop/Arthur/Codigos/defi_tutorial/src/contracts/Lottery.sol",
  "compiler": {
    "name": "solc",
    "version": "0.5.16+commit.9c3226ce.Emscripten.clang"
  },
  "schemaVersion": "3.4.3",
  "updatedAt": "2021-10-29T03:16:43.261Z",
  "networkType": "ethereum",
  "devdoc": {
    "methods": {}
  },
  "userdoc": {
    "methods": {}
  }
}