{
  "contractName": "Lottery",
  "abi": [
    {
      "inputs": [],
      "payable": false,
      "stateMutability": "nonpayable",
      "type": "constructor"
    },
    {
      "constant": true,
      "inputs": [],
      "name": "manager",
      "outputs": [
        {
          "internalType": "address",
          "name": "",
          "type": "address"
        }
      ],
      "payable": false,
      "stateMutability": "view",
      "type": "function"
    },
    {
      "constant": true,
      "inputs": [
        {
          "internalType": "uint256",
          "name": "",
          "type": "uint256"
        }
      ],
      "name": "players",
      "outputs": [
        {
          "internalType": "address payable",
          "name": "",
          "type": "address"
        }
      ],
      "payable": false,
      "stateMutability": "view",
      "type": "function"
    },
    {
      "constant": true,
      "inputs": [],
      "name": "getBalance",
      "outputs": [
        {
          "internalType": "uint256",
          "name": "",
          "type": "uint256"
        }
      ],
      "payable": false,
      "stateMutability": "view",
      "type": "function"
    },
    {
      "constant": true,
      "inputs": [],
      "name": "random",
      "outputs": [
        {
          "internalType": "uint256",
          "name": "",
          "type": "uint256"
        }
      ],
      "payable": false,
      "stateMutability": "view",
      "type": "function"
    },
    {
      "constant": false,
      "inputs": [],
      "name": "pickWinner",
      "outputs": [],
      "payable": false,
      "stateMutability": "nonpayable",
      "type": "function"
    }
  ],
  "bytecode": "0x608060405234801561001057600080fd5b5033600160006101000a81548173ffffffffffffffffffffffffffffffffffffffff021916908373ffffffffffffffffffffffffffffffffffffffff160217905550610619806100616000396000f3fe608060405234801561001057600080fd5b50600436106100575760003560e01c806312065fe01461005c578063481c6a751461007a5780635d495aea146100c45780635ec01e4d146100ce578063f71d96cb146100ec575b600080fd5b61006461015a565b6040518082815260200191505060405180910390f35b61008261023c565b604051808273ffffffffffffffffffffffffffffffffffffffff1673ffffffffffffffffffffffffffffffffffffffff16815260200191505060405180910390f35b6100cc610262565b005b6100d6610495565b6040518082815260200191505060405180910390f35b6101186004803603602081101561010257600080fd5b81019080803590602001909291905050506104db565b604051808273ffffffffffffffffffffffffffffffffffffffff1673ffffffffffffffffffffffffffffffffffffffff16815260200191505060405180910390f35b6000600160009054906101000a900473ffffffffffffffffffffffffffffffffffffffff1673ffffffffffffffffffffffffffffffffffffffff163373ffffffffffffffffffffffffffffffffffffffff161461021f576040517f08c379a000000000000000000000000000000000000000000000000000000000815260040180806020018281038252600d8152602001807f4e6f207065726d697373696f6e0000000000000000000000000000000000000081525060200191505060405180910390fd5b3073ffffffffffffffffffffffffffffffffffffffff1631905090565b600160009054906101000a900473ffffffffffffffffffffffffffffffffffffffff1681565b600160009054906101000a900473ffffffffffffffffffffffffffffffffffffffff1673ffffffffffffffffffffffffffffffffffffffff163373ffffffffffffffffffffffffffffffffffffffff1614610325576040517f08c379a00000000000000000000000000000000000000000000000000000000081526004018080602001828103825260048152602001807f47544f210000000000000000000000000000000000000000000000000000000081525060200191505060405180910390fd5b600360008054905010156103a1576040517f08c379a000000000000000000000000000000000000000000000000000000000815260040180806020018281038252601e8152602001807f4e6f7420656e6f75676820706c6179657220706172746963697061696e67000081525060200191505060405180910390fd5b60006103ab610495565b905060008060008054905083816103be57fe5b069050600081815481106103ce57fe5b9060005260206000200160009054906101000a900473ffffffffffffffffffffffffffffffffffffffff1691508173ffffffffffffffffffffffffffffffffffffffff166108fc61041d61015a565b9081150290604051600060405180830381858888f19350505050158015610448573d6000803e3d6000fd5b5060006040519080825280602002602001820160405280156104795781602001602082028038833980820191505090505b506000908051906020019061048f929190610517565b50505050565b600044426000805490506040516020018084815260200183815260200182815260200193505050506040516020818303038152906040528051906020012060001c905090565b600081815481106104e857fe5b906000526020600020016000915054906101000a900473ffffffffffffffffffffffffffffffffffffffff1681565b828054828255906000526020600020908101928215610590579160200282015b8281111561058f5782518260006101000a81548173ffffffffffffffffffffffffffffffffffffffff021916908373ffffffffffffffffffffffffffffffffffffffff16021790555091602001919060010190610537565b5b50905061059d91906105a1565b5090565b6105e191905b808211156105dd57600081816101000a81549073ffffffffffffffffffffffffffffffffffffffff0219169055506001016105a7565b5090565b9056fea265627a7a72315820ec0b207b037f694df02b327420ac0218e6cc5ddfef46332a42beb1ccdd939dcd64736f6c63430005100032",
  "source": "pragma solidity >=0.5.0;\n\n// the lottery will have manager that\n\ncontract Lottery {\n    address payable[] public players; //accessed by anyone\n    address public manager;\n\n    constructor() public {\n        manager = msg.sender;\n    }\n\n    // receive() external payable {\n    //     require(msg.value > 0.1 ether, \"value not right\");\n    //     players.push(payable(msg.sender)); //needs to convert before pushing to payable array\n    // }\n\n    function getBalance() public view returns (uint256) {\n        require(msg.sender == manager, \"No permission\");\n        return address(this).balance;\n    }\n\n    function random() public view returns (uint256) {\n        return\n            uint256(\n                keccak256(\n                    abi.encodePacked(\n                        block.difficulty,\n                        block.timestamp,\n                        players.length\n                    )\n                )\n            );\n    }\n\n    function pickWinner() public {\n        require(msg.sender == manager, \"GTO!\");\n        require(players.length >= 3, \"Not enough player participaing\");\n\n        uint256 rand = random();\n        address payable winner;\n        uint256 index = rand % players.length;\n\n        winner = players[index];\n        winner.transfer(getBalance());\n        players = new address payable[](0); //reset lottery\n    }\n}\n",
  "sourcePath": "/home/arthur/Desktop/Arthur/Codigos/defi_tutorial/src/contracts/Lottery.sol",
  "compiler": {
    "name": "solc",
    "version": "0.5.16+commit.9c3226ce.Emscripten.clang"
  },
  "schemaVersion": "3.4.3",
  "updatedAt": "2021-10-29T02:51:30.048Z",
  "networkType": "ethereum",
  "devdoc": {
    "methods": {}
  },
  "userdoc": {
    "methods": {}
  }
}